:1000000017C031C030C02FC02EC02DC02CC02BC097
:100010002AC029C028C027C026C04FC06CC087C0D6
:100020009BC09DC09FC0A3C0A8C0C2C0D3C0B8C061
:1000300011241FBECFE5D2E0DEBFCDBF10E0A0E6A9
:10004000B0E0EEE7F2E002C005900D92A436B107F1
:10005000D9F710E0A4E6B0E001C01D92A936B107BF
:10006000E1F70ED00AC1CCCF80E886BD16BC8AE489
:100070000DD083E091E017D084E291E019D008958B
:10008000F3DF7894FFCF8FEF089508958093650094
:100090008CE38DB988B3856088BB6F9ABC9A08954C
:1000A00080936500089590936300809362000895A3
:1000B000909361008093600008951F920F920FB695
:1000C0000F9211248F939F9388B390E1892788BB67
:1000D00080EC8EB98DB18C6D8DB9B29B02C0B09B96
:1000E000FCCF1EB8109264009F918F910F900FBEAD
:1000F0000F901F9018951F920F920FB60F92112418
:100100002F933F934F935F936F937F938F939F931F
:10011000AF93BF93EF93FF9360B3E0916400F0E07F
:10012000E930F10508F05EC0E15FFF4F099480916E
:100130006500962F9695981751F41FB8B89A8EE7D8
:100140008EB960FF02C086E04BC081E049C08DB12E
:100150008F7A8DB980EF22C0B89883E00AC0B89A30
:1001600086E007C060936600B89A1FB813C0B898BD
:1001700085E08093640080E411C0B89A1FB8E091D4
:100180006000F091610080916600982F9F5F9093CE
:100190006600099584E0809364008EE48EB922C0E5
:1001A0008FB1882329F0B8988DB18F7A8DB91AC094
:1001B0006A98B89AE0916200F091630080916600BD
:1001C000982F9F5F9093660009958FB980E78EB94D
:1001D00087E006C06A9A1FB8B8988EE78EB988E0A3
:1001E00080936400FF91EF91BF91AF919F918F91A8
:1001F0007F916F915F914F913F912F910F900FBE23
:100200000F901F901895833091F0843028F481303E
:10021000C9F0823050F407C0853069F0853048F06D
:10022000803871F40AC081E4089584E408958AE472
:10023000089581E0089580E0089580916700089511
:100240008FEF089583E50895803819F4862F90E0A4
:1002500001D008959093680080936700089597B344
:1002600021E030E002C0220F331F8A95E2F7922B83
:0E02700097BB88B3822788BB0895F894FFCF10
:04027E0045004300F4
:00000001FF
