:100000000C9434000C9451000C9451000C94510049
:100010000C9451000C9451000C9451000C9451001C
:100020000C9451000C9451000C9451000C9451000C
:100030000C9451000C9451000C9442020C94510009
:100040000C9451000C9451000C94DF010C9451005D
:100050000C9451000C94DC020C9451000C9451004F
:100060000C9451000C94510011241FBECFEFD4E02A
:10007000DEBFCDBF11E0A0E0B1E0E0E8FBE002C0F0
:1000800005900D92A432B107D9F711E0A4E2B1E0D6
:1000900001C01D92A937B107E1F70E9451010C94EC
:1000A000BE050C94000086E191E090937601809368
:1000B000750190937801809377010E9457010E9407
:1000C0000B020E9410025F9A089581E00E94AA012B
:1000D000289A8137E9F1823730F48435F9F0813696
:1000E00009F0DAC038C0863721F0883709F0D4C06B
:1000F00062C000D000D000D0EDB7FEB7319680E0EE
:1001000091E0ADB7BEB712969C938E93119783E0A2
:1001100090E0938382831582148242C081E00E9422
:10012000AA01813311F480E004C0823309F0B7C022
:1001300081E00E9429020E941B028FE790EFAAEF44
:10014000B2E081509040A040B040D9F700C000001C
:100150000E942002A4C080E060E040E20E945502BC
:1001600089E291E067E271E00E94CD0200D000D008
:1001700000D0EDB7FEB731968FE091E0ADB7BEB7D6
:1001800012969C938E9311978091290190912A0148
:1001900093838283809127019091280195838483A2
:1001A0000E94EB028DB79EB706960FB6F8949EBFDD
:1001B0000FBE8DBF74C088E70E94660188E70E9469
:1001C000660180E060E040E20E94550289E291E031
:1001D00067E271E00E94CD02809129010E946601D0
:1001E00080912A010E946601809127010E94660188
:1001F000809128010E94660180E061E040E20E9457
:10020000550289E291E067E271E00E94CD0280919F
:1002100029010E94660180912A010E946601809155
:1002200027010E946601809128010E94660181E0F9
:1002300060E040E20E94550289E291E067E271E0ED
:100240000E94CD02809129010E94660180912A01BD
:100250000E946601809127010E9466018091280119
:100260000E94660181E061E040E20E94550289E25D
:1002700091E067E271E00E94CD02809129010E9425
:10028000660180912A010E946601809127010E94E7
:1002900066018091280101C08FE30E9466012898C1
:1002A00008950E94530078940E946500FDCF10923B
:1002B000C5008AE08093C400E0ECF0E08081808398
:1002C000E1ECF0E08081886980830895289A90911C
:1002D000C00095FFFCCF8093C600289808951F9317
:1002E000182F289A8A3019F48DE00E946F018091AE
:1002F000C00085FFFCCF1093C600289880E090E0F6
:100300001F910895EF92FF920F931F93CF93DF9366
:10031000289A082F192FC0E0D0E0E62EFF2406C04F
:10032000F80181918F010E9466012196CE15DF05AB
:10033000BCF32898DF91CF911F910F91FF90EF9020
:100340000895209124019091250181E0291709F455
:1003500080E00895882339F090912401809125014F
:100360009817D1F306C09091240180912501981728
:1003700071F0E0912401F0E0E55DFE4F2081809175
:1003800024018F5F8F738093240130E002C02FEF30
:100390003FEFC9010895909124018091250198179C
:1003A000D1F3E0912401F0E0E55DFE4F8081909172
:1003B00024019F5F9F739093240190E008951F9202
:1003C0000F920FB60F9211248F939F93EF93FF9389
:1003D000E0912501F0E08091C600E55DFE4F80834D
:1003E000809125018F5F8F73809325019091250166
:1003F00080912401981731F4809124018F5F8F73CD
:1004000080932401FF91EF919F918F910F900FBEE8
:100410000F901F90189584B1836084B9579A0895FE
:1004200082E084BD15BC8FE387BDEEE6F0E08081FD
:10043000826080830895299A16BC81E085BD089565
:1004400015BC8AB18F798AB98BB18F798BB929980C
:100450000895DF93CF930F92CDB7DEB789830E94C3
:1004600020024AB1898190E0059621E030E002C087
:10047000220F331F8A95E2F7422B4AB90F90CF9192
:10048000DF9108951F920F920FB60F9211248F9350
:100490009F938BB190E689278BB99F918F910F9095
:1004A0000FBE0F901F9018950895DF93CF9300D043
:1004B000CDB7DEB710926C0110926B0110926E01F5
:1004C00010926D011092700110926F0110927201E2
:1004D000109271014A8369830E9429020E941B02C3
:1004E000109226018DE280937A0010927C00809118
:1004F0007C006981862B80937C0089EA95E00197D6
:10050000F1F700C0000083E08A95F1F700008091C8
:100510007A00806880937A0080917A00806480936A
:100520007A0060E050E04A81809126018823E1F35F
:10053000809178009091790080509240109226012D
:10054000252F30E0F901E170F07051FF09C0EE0F86
:10055000FF1FE559FE4F20813181280F391F08C048
:10056000EE0FFF1FE559FE4F20813181281B390B0B
:1005700031832083533009F46F5F641719F05F5F94
:100580005370D2CF80917A0010927A000E9420029C
:100590000F900F90CF91DF91089520916B013091D2
:1005A0006C01FC013183208380916D0190916E017B
:1005B000FB019183808308951F920F920FB60F92D3
:1005C00011248F9381E0809326018F910F900FBEAD
:1005D0000F901F901895A0E0B0E0E1EFF2E00C94CE
:1005E0009705FE0135966191719180917501909109
:1005F0007601AF010E9400032096E2E00C94B3055F
:10060000ACE0B0E0E6E0F3E00C9487056C011B0180
:100610008A01FC0117821682838181FFD1C12E01DC
:100620000894411C511CF6019381F10193FD8591C1
:1006300093FF81911F01882309F4BEC1853239F4EB
:1006400093FD859193FF81911F01853229F490E0FC
:10065000B6010E94FD04E7CFEE24FF2420E0203203
:10066000B0F48B3269F08C3228F4803251F083324E
:1006700071F40BC08D3239F0803349F421602CC005
:100680002260246029C0286027C0206125C027FD82
:100690002CC0382F30533A3098F426FF08C08E2DE6
:1006A000880FE82EEE0CEE0CE80EE30E15C08F2D31
:1006B000880FF82EFF0CFF0CF80EF30E20620CC012
:1006C0008E3221F426FD78C1206406C08C3611F4E8
:1006D000206802C0883649F4F10193FD859193FFAB
:1006E00081911F01882309F0BACF982F9554933038
:1006F00018F09052933028F40C5F1F4FFFE3F983FA
:100700000DC0833631F0833771F0833509F060C056
:1007100022C0F801808189830E5F1F4F420171E082
:10072000A72EB12C16C062E0662E712C600E711ED1
:10073000F8018080918026FF03C06E2D70E002C01A
:100740006FEF7FEFC4012C870E94F2045C018301EC
:100750002C852F7717C052E0652E712C600E711E0C
:10076000F8018080918026FF03C06E2D70E002C0EA
:100770006FEF7FEFC4012C870E94E7045C012C859A
:100780002068830123FD20C008C080E290E0B6010C
:100790002C870E94FD04FA942C858F2D90E0A816DA
:1007A000B90698F311C0F40127FD859127FF8191C7
:1007B0004F0190E0B6012C870E94FD042C85F110BA
:1007C000FA940894A108B108A114B10461F7F1C02A
:1007D000843611F0893649F527FF08C0F801608199
:1007E0007181828193810C5F1F4F09C0F801608184
:1007F0007181882777FD8095982F0E5F1F4F4FE6F8
:10080000B42EB22297FF09C090958095709561959E
:100810007F4F8F4F9F4FF0E8BF2AA2012AE030E0C0
:100820000E942905782E741845C0853731F43FEEB3
:10083000B32EB2222AE030E025C099EFB92EB222C1
:100840008F36C1F0803720F4883509F0B5C00DC06F
:10085000803721F0883709F0AFC002C020E1B22A0A
:10086000B4FE0BC084E0B82A08C0B4FE09C0E6E0BC
:10087000BE2A06C028E030E005C020E130E002C01A
:1008800020E132E0B7FE08C0F80160817181828109
:1008900093810C5F1F4F07C0F8016081718180E078
:1008A00090E00E5F1F4FA2010E942905782E741858
:1008B000FFE7BF22B6FE0BC02EEFB2227E1438F443
:1008C000B4FE07C0B2FC05C08FEEB82202C0A72C50
:1008D00001C0AE2C8B2D90E0B4FE0DC0FE01E70DE3
:1008E000F11D2081203319F4E9EEBE2209C0A39442
:1008F000B2FE06C004C086789070009709F0A394F9
:100900008B2C9924B3FC14C0B0FE0FC0AF1428F494
:10091000E72CEF0CEA18AF2C08C0E72C06C080E2E9
:1009200090E0B6010E94FD04A394AF14C0F304C08C
:10093000AF1410F4FA1801C0FF2484FE0FC080E346
:1009400090E0B6010E94FD0482FE1FC081FE03C03C
:1009500088E590E010C088E790E00DC0C40186787B
:100960009070009791F081FC02C080E201C08BE2A0
:10097000B7FC8DE290E0B6010E94FD0406C080E362
:1009800090E0B6010E94FD04EA947E14C0F37A94CC
:10099000F201E70DF11D808190E0B6010E94FD0497
:1009A0007720A9F706C080E290E0B6010E94FD041E
:1009B000FA94FF20C1F737CEF6012681378102C0B5
:1009C0002FEF3FEFC9012C96E2E10C94A305FC0147
:1009D0000590615070400110D8F7809590958E0F6A
:1009E0009F1F0895FC016150704001900110D8F7DD
:1009F000809590958E0F9F1F08950F931F93CF930F
:100A0000DF938C01EB018B8181FF1BC082FF0DC046
:100A10002E813F818C819D812817390764F4E881FC
:100A2000F9810193F983E88306C0E885F985802F71
:100A30000995009731F48E819F8101969F838E8363
:100A400002C00FEF1FEFC801DF91CF911F910F91EF
:100A50000895FA01AA27283051F1203181F1E89454
:100A60006F936E7F6E5F7F4F8F4F9F4FAF4FB1E0A1
:100A70003ED0B4E03CD0670F781F891F9A1FA11D9C
:100A8000680F791F8A1F911DA11D6A0F711D811D9D
:100A9000911DA11D20D009F468943F912AE0269F62
:100AA00011243019305D3193DEF6CF010895462FC1
:100AB0004770405D4193B3E00FD0C9F7F6CF462FA2
:100AC0004F70405D4A3318F0495D31FD405241930B
:100AD00002D0A9F7EACFB4E0A695979587957795C8
:100AE0006795BA95C9F700976105710508959B014F
:100AF000AC010A2E06945795479537952795BA95D8
:100B0000C9F7620F731F841F951FA01D08952F92B0
:100B10003F924F925F926F927F928F929F92AF928D
:100B2000BF92CF92DF92EF92FF920F931F93CF93DA
:100B3000DF93CDB7DEB7CA1BDB0B0FB6F894DEBF71
:100B40000FBECDBF09942A88398848885F846E8497
:100B50007D848C849B84AA84B984C884DF80EE80E1
:100B6000FD800C811B81AA81B981CE0FD11D0FB6EA
:100B7000F894DEBF0FBECDBFED010895F894FFCF0E
:100B8000466162466973682025642E25640A002543
:100B9000640925640A0000000003000000006F01E2
:040BA000CB01000085
:00000001FF
